{
  "contractName": "AuctionToken",
  "abi": [
    {
      "inputs": [
        {
          "internalType": "address",
          "name": "_nftAddress",
          "type": "address"
        }
      ],
      "stateMutability": "nonpayable",
      "type": "constructor"
    },
    {
      "anonymous": false,
      "inputs": [
        {
          "indexed": false,
          "internalType": "uint256",
          "name": "_tokenId",
          "type": "uint256"
        }
      ],
      "name": "AuctionCreated",
      "type": "event"
    },
    {
      "anonymous": false,
      "inputs": [
        {
          "indexed": false,
          "internalType": "uint256",
          "name": "_bidAmount",
          "type": "uint256"
        },
        {
          "indexed": true,
          "internalType": "address",
          "name": "bidder",
          "type": "address"
        }
      ],
      "name": "BidPosted",
      "type": "event"
    },
    {
      "inputs": [],
      "name": "nft",
      "outputs": [
        {
          "internalType": "contract ERC721",
          "name": "",
          "type": "address"
        }
      ],
      "stateMutability": "view",
      "type": "function",
      "constant": true
    },
    {
      "inputs": [
        {
          "internalType": "uint256",
          "name": "",
          "type": "uint256"
        }
      ],
      "name": "tokenIdToAuction",
      "outputs": [
        {
          "internalType": "address",
          "name": "seller",
          "type": "address"
        },
        {
          "internalType": "uint128",
          "name": "price",
          "type": "uint128"
        },
        {
          "internalType": "uint256",
          "name": "startTime",
          "type": "uint256"
        },
        {
          "internalType": "uint256",
          "name": "endTime",
          "type": "uint256"
        },
        {
          "internalType": "uint256",
          "name": "highestBid",
          "type": "uint256"
        },
        {
          "internalType": "address",
          "name": "highestBidder",
          "type": "address"
        }
      ],
      "stateMutability": "view",
      "type": "function",
      "constant": true
    },
    {
      "inputs": [
        {
          "internalType": "uint256",
          "name": "_tokenId",
          "type": "uint256"
        },
        {
          "internalType": "uint128",
          "name": "_price",
          "type": "uint128"
        },
        {
          "internalType": "uint256",
          "name": "_startTime",
          "type": "uint256"
        },
        {
          "internalType": "uint256",
          "name": "_endTime",
          "type": "uint256"
        }
      ],
      "name": "createAuction",
      "outputs": [],
      "stateMutability": "nonpayable",
      "type": "function"
    },
    {
      "inputs": [
        {
          "internalType": "uint256",
          "name": "_tokenId",
          "type": "uint256"
        }
      ],
      "name": "bid",
      "outputs": [],
      "stateMutability": "payable",
      "type": "function",
      "payable": true
    },
    {
      "inputs": [
        {
          "internalType": "uint256",
          "name": "_tokenId",
          "type": "uint256"
        },
        {
          "internalType": "address",
          "name": "_to",
          "type": "address"
        }
      ],
      "name": "finalize",
      "outputs": [],
      "stateMutability": "nonpayable",
      "type": "function"
    },
    {
      "inputs": [
        {
          "internalType": "address",
          "name": "",
          "type": "address"
        },
        {
          "internalType": "address",
          "name": "",
          "type": "address"
        },
        {
          "internalType": "uint256",
          "name": "",
          "type": "uint256"
        },
        {
          "internalType": "bytes",
          "name": "",
          "type": "bytes"
        }
      ],
      "name": "onERC721Received",
      "outputs": [
        {
          "internalType": "bytes4",
          "name": "",
          "type": "bytes4"
        }
      ],
      "stateMutability": "nonpayable",
      "type": "function"
    }
  ],
  "bytecode": "0x608060405234801561001057600080fd5b506040516110633803806110638339818101604052602081101561003357600080fd5b8101908080519060200190929190505050806000806101000a81548173ffffffffffffffffffffffffffffffffffffffff021916908373ffffffffffffffffffffffffffffffffffffffff16021790555050610fcf806100946000396000f3fe6080604052600436106100555760003560e01c8063150b7a021461005a578063454a2ab31461019f57806347ccca02146101cd578063510254c11461020e578063824e0dd014610269578063e3b14757146102d4575b600080fd5b34801561006657600080fd5b5061016a6004803603608081101561007d57600080fd5b81019080803573ffffffffffffffffffffffffffffffffffffffff169060200190929190803573ffffffffffffffffffffffffffffffffffffffff16906020019092919080359060200190929190803590602001906401000000008111156100e457600080fd5b8201836020820111156100f657600080fd5b8035906020019184600183028401116401000000008311171561011857600080fd5b91908080601f016020809104026020016040519081016040528093929190818152602001838380828437600081840152601f19601f820116905080830192505050505050509192919290505050610384565b60405180827bffffffffffffffffffffffffffffffffffffffffffffffffffffffff1916815260200191505060405180910390f35b6101cb600480360360208110156101b557600080fd5b8101908080359060200190929190505050610398565b005b3480156101d957600080fd5b506101e26105b6565b604051808273ffffffffffffffffffffffffffffffffffffffff16815260200191505060405180910390f35b34801561021a57600080fd5b506102676004803603604081101561023157600080fd5b8101908080359060200190929190803573ffffffffffffffffffffffffffffffffffffffff1690602001909291905050506105da565b005b34801561027557600080fd5b506102d26004803603608081101561028c57600080fd5b810190808035906020019092919080356fffffffffffffffffffffffffffffffff1690602001909291908035906020019092919080359060200190929190505050610914565b005b3480156102e057600080fd5b5061030d600480360360208110156102f757600080fd5b8101908080359060200190929190505050610cfe565b604051808773ffffffffffffffffffffffffffffffffffffffff168152602001866fffffffffffffffffffffffffffffffff1681526020018581526020018481526020018381526020018273ffffffffffffffffffffffffffffffffffffffff168152602001965050505050505060405180910390f35b600063150b7a0260e01b9050949350505050565b6103a28134610d96565b6103ab57600080fd5b6000600160008381526020019081526020016000206040518060c00160405290816000820160009054906101000a900473ffffffffffffffffffffffffffffffffffffffff1673ffffffffffffffffffffffffffffffffffffffff1673ffffffffffffffffffffffffffffffffffffffff1681526020016001820160009054906101000a90046fffffffffffffffffffffffffffffffff166fffffffffffffffffffffffffffffffff166fffffffffffffffffffffffffffffffff1681526020016002820154815260200160038201548152602001600482015481526020016005820160009054906101000a900473ffffffffffffffffffffffffffffffffffffffff1673ffffffffffffffffffffffffffffffffffffffff1673ffffffffffffffffffffffffffffffffffffffff16815250509050600081608001519050803411156105b157346001600085815260200190815260200160002060040181905550336001600085815260200190815260200160002060050160006101000a81548173ffffffffffffffffffffffffffffffffffffffff021916908373ffffffffffffffffffffffffffffffffffffffff1602179055503373ffffffffffffffffffffffffffffffffffffffff167feedafcf367f1ee618d113165408797f89a1569796fad813a6cad33533101aaf0346040518082815260200191505060405180910390a25b505050565b60008054906101000a900473ffffffffffffffffffffffffffffffffffffffff1681565b6000600160008481526020019081526020016000206040518060c00160405290816000820160009054906101000a900473ffffffffffffffffffffffffffffffffffffffff1673ffffffffffffffffffffffffffffffffffffffff1673ffffffffffffffffffffffffffffffffffffffff1681526020016001820160009054906101000a90046fffffffffffffffffffffffffffffffff166fffffffffffffffffffffffffffffffff166fffffffffffffffffffffffffffffffff1681526020016002820154815260200160038201548152602001600482015481526020016005820160009054906101000a900473ffffffffffffffffffffffffffffffffffffffff1673ffffffffffffffffffffffffffffffffffffffff1673ffffffffffffffffffffffffffffffffffffffff16815250509050806000015173ffffffffffffffffffffffffffffffffffffffff163373ffffffffffffffffffffffffffffffffffffffff1614610798576040517f08c379a0000000000000000000000000000000000000000000000000000000008152600401808060200182810382526023815260200180610f776023913960400191505060405180910390fd5b80606001514210156107a957600080fd5b60008054906101000a900473ffffffffffffffffffffffffffffffffffffffff1673ffffffffffffffffffffffffffffffffffffffff166342842e0e3084866040518463ffffffff1660e01b8152600401808473ffffffffffffffffffffffffffffffffffffffff1681526020018373ffffffffffffffffffffffffffffffffffffffff1681526020018281526020019350505050600060405180830381600087803b15801561085857600080fd5b505af115801561086c573d6000803e3d6000fd5b5050505060016000848152602001908152602001600020600080820160006101000a81549073ffffffffffffffffffffffffffffffffffffffff02191690556001820160006101000a8154906fffffffffffffffffffffffffffffffff02191690556002820160009055600382016000905560048201600090556005820160006101000a81549073ffffffffffffffffffffffffffffffffffffffff02191690555050505050565b60008054906101000a900473ffffffffffffffffffffffffffffffffffffffff1673ffffffffffffffffffffffffffffffffffffffff16636352211e856040518263ffffffff1660e01b81526004018082815260200191505060206040518083038186803b15801561098557600080fd5b505afa158015610999573d6000803e3d6000fd5b505050506040513d60208110156109af57600080fd5b810190808051906020019092919050505073ffffffffffffffffffffffffffffffffffffffff163373ffffffffffffffffffffffffffffffffffffffff1614610a60576040517f08c379a000000000000000000000000000000000000000000000000000000000815260040180806020018281038252601c8152602001807f53686f756c6420626520746865206f776e6572206f6620746f6b656e0000000081525060200191505060405180910390fd5b42821015610a6d57600080fd5b42811015610a7a57600080fd5b818111610a8657600080fd5b60008054906101000a900473ffffffffffffffffffffffffffffffffffffffff1673ffffffffffffffffffffffffffffffffffffffff166342842e0e3330876040518463ffffffff1660e01b8152600401808473ffffffffffffffffffffffffffffffffffffffff1681526020018373ffffffffffffffffffffffffffffffffffffffff1681526020018281526020019350505050600060405180830381600087803b158015610b3557600080fd5b505af1158015610b49573d6000803e3d6000fd5b5050505060006040518060c001604052803373ffffffffffffffffffffffffffffffffffffffff168152602001856fffffffffffffffffffffffffffffffff16815260200184815260200183815260200160008152602001600073ffffffffffffffffffffffffffffffffffffffff168152509050806001600087815260200190815260200160002060008201518160000160006101000a81548173ffffffffffffffffffffffffffffffffffffffff021916908373ffffffffffffffffffffffffffffffffffffffff16021790555060208201518160010160006101000a8154816fffffffffffffffffffffffffffffffff02191690836fffffffffffffffffffffffffffffffff16021790555060408201518160020155606082015181600301556080820151816004015560a08201518160050160006101000a81548173ffffffffffffffffffffffffffffffffffffffff021916908373ffffffffffffffffffffffffffffffffffffffff1602179055509050507f7e0e356457a92dacd3760ddf327a24dd226c6ca01b2cc41a7fd6f28469c7ab9b856040518082815260200191505060405180910390a15050505050565b60016020528060005260406000206000915090508060000160009054906101000a900473ffffffffffffffffffffffffffffffffffffffff16908060010160009054906101000a90046fffffffffffffffffffffffffffffffff16908060020154908060030154908060040154908060050160009054906101000a900473ffffffffffffffffffffffffffffffffffffffff16905086565b600080600160008581526020019081526020016000206040518060c00160405290816000820160009054906101000a900473ffffffffffffffffffffffffffffffffffffffff1673ffffffffffffffffffffffffffffffffffffffff1673ffffffffffffffffffffffffffffffffffffffff1681526020016001820160009054906101000a90046fffffffffffffffffffffffffffffffff166fffffffffffffffffffffffffffffffff166fffffffffffffffffffffffffffffffff1681526020016002820154815260200160038201548152602001600482015481526020016005820160009054906101000a900473ffffffffffffffffffffffffffffffffffffffff1673ffffffffffffffffffffffffffffffffffffffff1673ffffffffffffffffffffffffffffffffffffffff168152505090506000816040015190506000826060015190506000836000015190506000846020015190506000844211158015610f035750834211155b90506000826fffffffffffffffffffffffffffffffff16891015905060008073ffffffffffffffffffffffffffffffffffffffff168573ffffffffffffffffffffffffffffffffffffffff1614159050828015610f5d5750815b8015610f665750805b985050505050505050509291505056fe53686f756c64206f6e6c792062652063616c6c6564206279207468652073656c6c6572a2646970667358221220a005163f9fd876475fe346a452ae6a89b09a26f53d973025d3feb9bbbf7b8d0d64736f6c63430007060033",
  "immutableReferences": {},
  "source": "// SPDX-License-Identifier: GPL-3.0\r\n\r\npragma solidity >=0.7.0 <0.9.0;\r\nimport '@openzeppelin/contracts/token/ERC721/ERC721.sol';\r\nimport '@openzeppelin/contracts/access/Ownable.sol';\r\nimport '@openzeppelin/contracts/token/ERC721/IERC721Receiver.sol';\r\n\r\ncontract AuctionToken is IERC721Receiver{\r\n    ERC721 public nft;\r\n    \r\n    struct Auction{\r\n        address seller;\r\n        uint128 price;\r\n        uint256 startTime;\r\n        uint256 endTime;\r\n        uint256 highestBid;\r\n        address highestBidder;\r\n    }\r\n    \r\n    mapping(uint256 => Auction) public tokenIdToAuction;\r\n    \r\n    \r\n    constructor(address _nftAddress) {\r\n        nft = ERC721(_nftAddress);\r\n    }\r\n    \r\n    event AuctionCreated(uint256 _tokenId);\r\n    event BidPosted(uint256 _bidAmount, address indexed bidder);\r\n    \r\n    function createAuction(uint256 _tokenId, uint128 _price, uint256 _startTime, uint256 _endTime) public{\r\n        require(msg.sender == nft.ownerOf(_tokenId), 'Should be the owner of token');\r\n        require(_startTime >= block.timestamp);\r\n        require(_endTime >= block.timestamp);\r\n        require(_endTime > _startTime);\r\n        nft.safeTransferFrom(msg.sender, address(this), _tokenId);\r\n        Auction memory auction = Auction({\r\n            seller: msg.sender,\r\n            price: _price,\r\n            startTime: _startTime,\r\n            endTime: _endTime,\r\n            highestBid: 0,\r\n            highestBidder: address(0x0)\r\n        });\r\n        tokenIdToAuction[_tokenId] = auction;\r\n        emit AuctionCreated(_tokenId);\r\n    }\r\n    \r\n    function bid(uint256 _tokenId) public payable{\r\n        require(isBidValid(_tokenId, msg.value));\r\n        Auction memory auction = tokenIdToAuction[_tokenId];\r\n        uint256 highestBid = auction.highestBid;\r\n        if(msg.value > highestBid){\r\n            tokenIdToAuction[_tokenId].highestBid = msg.value;\r\n            tokenIdToAuction[_tokenId].highestBidder = msg.sender;\r\n            emit BidPosted(msg.value, msg.sender);\r\n        }\r\n    }\r\n    \r\n    function finalize(uint256 _tokenId, address _to) public{\r\n        Auction memory auction = tokenIdToAuction[_tokenId];\r\n        require(msg.sender == auction.seller, 'Should only be called by the seller');\r\n        require(block.timestamp >= auction.endTime);\r\n        nft.safeTransferFrom(address(this), _to, _tokenId);\r\n        delete tokenIdToAuction[_tokenId];\r\n    }\r\n    \r\n    function onERC721Received(address, address, uint256, bytes memory) public virtual override returns (bytes4) {\r\n        return this.onERC721Received.selector;\r\n    }\r\n    \r\n    function isBidValid(uint256 _tokenId, uint256 _bidAmount) internal view returns (bool){\r\n        Auction memory auction = tokenIdToAuction[_tokenId];\r\n        uint256 startTime = auction.startTime;\r\n        uint256 endTime = auction.endTime;\r\n        address seller = auction.seller;\r\n        uint128 price = auction.price;\r\n        bool withinTime = block.timestamp <= startTime && block.timestamp <=endTime;\r\n        bool bidAmountValid = _bidAmount >= price;\r\n        bool sellerValid = seller != address(0);\r\n        return withinTime && bidAmountValid&& sellerValid;\r\n    }\r\n\r\n}\r\n",
  "sourcePath": "/home/anasshad/code/nft_gradients/src/contracts/AuctionToken.sol",
  "compiler": {
    "name": "solc",
    "version": "0.7.6+commit.7338295f.Emscripten.clang"
  },
  "schemaVersion": "3.3.3",
  "updatedAt": "2021-03-11T15:01:43.581Z",
  "networkType": "ethereum",
  "devdoc": {
    "kind": "dev",
    "methods": {},
    "version": 1
  },
  "userdoc": {
    "kind": "user",
    "methods": {},
    "version": 1
  }
}